:020000040000FA
:100000000128831203138601880187018901831661
:10001000860188018901BF30870083128316031788
:10002000890183120313AC200030A200A300A400B6
:1000300007181D2887182528182801308900CB208B
:1000400007182D2887183E281D2802308900CB204C
:1000500007185028871861281828CB2003308900FA
:10006000CB20003089000130A30098200230A4008A
:100070009C2007197328871901282D28CB200530CB
:100080008900CB20003089000230A3009820053081
:10009000A4009C20A20A07197328871901283E286A
:1000A000CB2006308900CB20003089000130A3002E
:1000B00098200530A4009C2007197328871901286F
:1000C0005028CB2007308900CB2000308900033036
:1000D000A30098200230A4009C20A20A07197328CC
:1000E000871901286128A21C76288528CB20013099
:1000F0008900CB20CB2002308900CB20CB20CB2025
:1001000004308900003089009028CB20013089001C
:10011000CB20CB20CB2002308900CB20CB20CB20A2
:1001200004308900B620CB2000308900CB209028F5
:100130002308A020860008002408A02088000800CA
:1001400082073F3406345B344F3466346D347C347C
:1001500007347F346F34080083160313243098006B
:100160001930990083129030980008002308303E1F
:10017000C3202C30C3202408303EC3200A30C320C3
:100180000D30C32008000C12990083160313981C2D
:10019000C728831208002030A1003030A000503062
:1001A0008000800BD128A00BCF28A10BCD28080000
:0401B00000340034E3
:02400E00F13C83
:02401000FF3F70
:00000001FF
